:020000040800F2
:1000000000800020490D0008A90C0008AB0C000876
:10001000AD0C0008AF0C0008B10C00080000000097
:10002000000000000000000000000000B30C000809
:10003000B50C000800000000B70C0008B90C00085F
:10004000A10D0008A10D0008A10D0008BD0C0008BD
:10005000A10D0008A10D0008A10D0008A10D0008C8
:10006000A10D0008A10D0008A10D0008A10D0008B8
:10007000A10D0008A10D0008A10D0008A10D0008A8
:10008000A10D0008A10D0008A10D0008000000004E
:1000900000000000A10D000800000000A10D0008F4
:1000A000A10D0008A10D0008A10D0008A10D000878
:1000B000A10D0008A10D0008A10D0008A10D000868
:1000C0000000000000000000A10D0008000000007A
:1000D000A10D00080000000000000000000000006A
:1000E000A10D0008A10D000800000000A10D0008EE
:1000F000C10C0008C50C0008C90C0008A10D0008BF
:10010000A10D000800000000000000000000000039
:10011000A10D0008A10D0008A10D000800000000BD
:1001200000000000000000000000000000000000CF
:0C0130000000000000000000A10D00080D
:10013C0010B5054C237833B9044B13B10448AFF315
:10014C0000800123237010BD8400002000000000FB
:10015C00743F000808B5034B1BB103490348AFF3C8
:10016C00008008BD0000000088000020743F0008DB
:10017C0070B50C4B88B001AA03F118061546186827
:10018C005968144603C40833B3422246F7D1198880
:10019C009B782180A37002F081FE284602F050FB70
:1001AC0008B070BD8C3F00087047000030B5436844
:1001BC00B3F80B30B3F5124F89B0044626D168461C
:1001CC0002F05AFB102200210DEB020003F092FE0C
:1001DC0063685D7BE5B9FFF7CBFF0F230F4A8DF802
:1001EC0010307F238DF8123013681B0CADF81C30C7
:1001FC00136804A8C3F30B03ADF81E3002F02EFBFA
:10020C0003F0F2F82946012003F000FD09B030BDDF
:10021C00012D04BF00232370F8E700BF002004E089
:10022C0008B50B4B4FF400421A61002002F05AFE45
:10023C0068B14FF0B042074B8179C2F89C30D2F8CC
:10024C009C3023F47C5343EA0123C2F89C3008BD54
:10025C0000400058FECAFECA034AD2F8903043F060
:10026C005003C2F8903070470008005800B589B0B0
:10027C00FFF7F2FF214BCA225A6253225A629A6844
:10028C0022F007029A60FF225A624FF0B042936844
:10029C0043F40043936003F0AFFC194A1949D2F8B8
:1002AC00803023F0070343F00403C2F880300020B1
:1002BC0000F064F90121084603F0A8FC02F0F6FCFA
:1002CC00114A0021042003F005FE104B00936946EF
:1002DC000F4B1048019302F01BFC0F4B02930F4B7A
:1002EC0003930F4B049302A840F23C53059302F086
:1002FC00A7FD02F0D9FC09B05DF804FB0028004012
:10030C0000040058400100207D2B0008100403203D
:10031C00B5010008B9010008F8010320040303200B
:10032C001C05032070B5044600F07EFD631C0546D9
:10033C0002D000F085FD0444064E04E0336923F03E
:10034C000403336130BF00F06FFD431BA342F5D3B0
:10035C0070BD00BF00ED00E04FF0FF3003F0F6BCC5
:10036C0070474FF0FF3003F0F1BC0021042003F084
:10037C008FBC022003F0BCBC022003F079BD00004E
:10038C00054A906A936A80B29BB2984200D170473A
:10039C00916A18468BB2F8E70028004010B50D4C56
:1003AC002368013313D0FFF7EBFF236883423DBF73
:1003BC00094B22681B88236838BF9B18181A074BF7
:1003CC001B785843064B1B78D84080B210BD0020D8
:1003DC00FBE700BFA8000020A2000020A400002022
:1003EC00A50000203C4B2DE9F0413C4E9B68376842
:1003FC0013F4806F03D0FB6813F0040FFAE7BB68AB
:10040C00DFF8F48023F48063BB60354B1B78182233
:10041C00DDB202FB03839C68FFF7C0FFA042314BA7
:10042C0006D901221A70002418214FF0000C1CE090
:10043C002D490A8810FA82F2A24239BF0C88002298
:10044C00241A012234BFA4B2A4B21A70ECE701FB47
:10045C00058301FB05859A68904297BF9A68C3F89B
:10046C0008C0121A9A606D7DEDB2062DEFD144B919
:10047C00FFF786FF1D4BBDE8F0411860032000F02C
:10048C006BBD012C03D11A4B1B78012B01D0013C05
:10049C00A4B2FB685B07FCD5FB68DBB263F490632A
:1004AC00FB60144B4FF40022DA60032000F062FD75
:1004BC00094A53691B0C1B0423435361FFF760FF6C
:1004CC000A4B32681860936843F480639360AFF30F
:1004DC000080BDE8F08100BF0028004040010020F2
:1004EC00AD000020A6000020A0000020A8000020E5
:1004FC00A500002000080058B0000020F0B51B4AF1
:10050C00137883421A4B17D114781A4DE4B22C701D
:10051C00182404FB0034647DE4B21470182404FB2A
:10052C000033012018731378062B04D119B9124B20
:10053C004FF0FF321A60F0BD182707FB0034267D00
:10054C0094F815E094F815C007FB06365FFA8CFC9E
:10055C00BEF1060F86F815C018BF267D5FFA8EF522
:10056C001EBF07FB0534F6B22675D7E7AD00002099
:10057C00B0000020AC000020A800002070B5404C5A
:10058C002168CA234B6253234B623E4B9A6842F05C
:10059C0020029A609D683C4A05F00705C5F10405E8
:1005AC00EDB215701A694FF4FE0602F4FE0296FACB
:1005BC00A6F6B6FA86F6F2400132344ED2B232705A
:1005CC001B69334EC3F30E0301333380013B53439A
:1005DC00A3F5A073EB404FF6FE7293422D4A8CBFED
:1005EC004FF6FF739BB213802B4A136843F400231E
:1005FC001360D2F8803043F40023C2F88030002816
:10060C0036D1264B01251D70254B4FF0FF351D6053
:10061C00244B187383F8240083F83C0083F85400AF
:10062C0083F86C0083F884001F4B062018708B68CD
:10063C0023F480638B60CB68DBB263F49063CB6094
:10064C004FF40023D360032000F094FC22689368DD
:10065C0043F4804393602368FF2203215A620846C7
:10066C00002200F013FCBDE87040032000F040BCF9
:10067C00CB685B05EFD5032000F06EFCEBE700BF09
:10068C004001002000280040A5000020A40000200C
:10069C00A2000020A000002000080058A6000020A6
:1006AC00A8000020B0000020AD00002070B504466A
:1006BC00EFF3108672B6234D032000F027FC2B6855
:1006CC00CA225A6253225A621F4B182202FB04336D
:1006DC001B7B022B25D100212046FFF70FFF1B4B64
:1006EC001B78062BDAB225D1194B9A682B6812F4B9
:1006FC00806F03D0DA6812F0040FFAE79A6822F4DC
:10070C0080629A60DA685207FCD5DA68D2B262F479
:10071C009062DA600F4B4FF40022DA60032000F095
:10072C0029FC2B68FF225A62032000F0E1FB86F3C0
:10073C00108870BD084B1B789342F2D0FFF752FE25
:10074C00EFE700BF40010020B0000020AD0000200A
:10075C000028004000080058AC0000202DE9F047AC
:10076C004F4C182303FB004305461B7B022B0F4603
:10077C0001D1FFF79BFFEFF3108672B6DFF83091D3
:10078C00032000F0C3FBD9F80030CA224FF0180A3E
:10079C005A620AFB054853225A62022388F80C302D
:1007AC00C8F80870C8F804703E4F3B78062BDAB2D4
:1007BC001DD13B783C49DBB20B703C4B3D7088F84B
:1007CC0015204FF0FF321A600020374A3B78127820
:1007DC009A425ED0FFF706FED9F80030FF225A622B
:1007EC00032000F085FB86F31088BDE8F087FFF747
:1007FC00D5FDD8F808300344C8F80830D8F80810EC
:10080C003B780AFB03439B68994225D33A78D3B2D1
:10081C000AFB0242527DD2B2062A04D00AFB0242E3
:10082C009268914214D2182202FB0341497D5FFA6F
:10083C0081FC06291CBF02FB0C421575182202FB19
:10084C00054181F815C00B7502FB03435D75BCE7D0
:10085C000AFB03435A7DDAE73B783A789342D9B2E4
:10086C000AFB03F311D023441A7D5FFA82FC0AFBC6
:10087C000242557588F8151088F814C01D753B7820
:10088C00094ADBB213703D709FE788F815102344BA
:10089C00F4E7182303FB0544A3681B1AA3609BE72A
:1008AC00B0000020AD000020AC000020A80000200B
:1008BC0040010020104700002DE9F84FEFF31085A0
:1008CC0072B6294C294923684FF0CA094FF05308D6
:1008DC00C3F82490C3F824809A6822F480629A604A
:1008EC00234A12781820D6B242438F18387B02283C
:1008FC002DD1204B51F802B0D7F810A01B780BB3B8
:10090C007B7B012BD9B217D13046FFF7F7FD85F36E
:10091C00108879683046FFF721FF23685A46C3F8E0
:10092C0024903146C3F824805046FFF7C3FF236858
:10093C00FF225A62BDE8F88F85F310883046FFF726
:10094C00B5FEEAE7FFF74EFD85F31088EFE7DA68AE
:10095C005207FCD5DA68D2B262F49062DA60064BC8
:10096C004FF40022DA60EFE740010020B0000020D5
:10097C00AD000020A6000020000800584FF0B04346
:10098C0082B0DA6C0243DA64DB6C03400193019BA6
:10099C0002B0704710B59AB04822002108A803F0A5
:1009AC00A9FA1C22002101A803F0A4FA00F048FCCB
:1009BC004FF0B0420721D2F8903023F0180343F0E7
:1009CC001003C2F890304FF48033CDE908130124A2
:1009DC004FF48073CDE90A4340230C9308A80023FD
:1009EC00139300F027FD08B172B6FEE702236F22C5
:1009FC00CDE901239023CDE90330CDE90500079023
:100A0C00214601A800F0DEFF08B172B6FEE71AB06D
:100A1C0010BD00B58BB01C22002102A803F06AFAAD
:100A2C004FF48053019301A84FF44043099301F014
:100A3C00CEF808B172B6FEE70BB05DF804FB00000F
:100A4C007FB500F0CFF9FFF7EBFBFFF7A3FFFFF744
:100A5C00E0FF4248424B036000F0D0FB044608B173
:100A6C0072B6FEE71422014601A803F043FA0420F3
:100A7C00FFF784FF8020FFF781FF0220FFF77EFF46
:100A8C000120FFF77BFF1020FFF778FF4FF4006188
:100A9C0022464FF0904000F08DFB0325082331488F
:100AAC00039401A9CDE9013500F0D4FA40F2FF33EB
:100ABC002D48039401A9CDE9013500F0CBFA49F298
:100ACC00FF7301A94FF09040CDE90135039400F07C
:100ADC00C1FA10232548039401A9CDE9013501265B
:100AEC0000F0B8FA4FF4006301A94FF09040204D8C
:100AFC00CDE90136CDE9034400F0ACFA1D4B2C6175
:100B0C000F22C5E90034284647F6FF73C5E90223D6
:100B1C00C5E906446C6101F053F9024608B172B69E
:100B2C00FEE745F20B01284601F0ACF9034608B18B
:100B3C0072B6FEE71048114A0260C0E905338380A3
:100B4C00066200F025FA08B172B6FEE70C4B1E7077
:100B5C00FFF78CFBFFF700FCFCE700BF64010020F3
:100B6C00000C0058001C004800040048001000480D
:100B7C004001002000280040A0010020003002406D
:100B8C000800002072B6FEE74FF0B04307B51A6DAF
:100B9C0042F400221A651B6D002203F4002301931A
:100BAC0011462E20019B00F071F92E2003B05DF848
:100BBC0004EB00F09DB900000268084B9A4282B029
:100BCC000AD14FF0B0439A6C42F480529A649B6CF9
:100BDC0003F480530193019B02B070470030024034
:100BEC0007B5124B02689A421DD14FF0B0432C202E
:100BFC001A6D42F480121A651B6D002203F48013E7
:100C0C0011460193019B00F041F92C2000F070F982
:100C1C00002211462D2000F039F92D2003B05DF88B
:100C2C0004EB00F065B903B05DF804FB000C005850
:100C3C0010B504468AB02422002101A803F05AF909
:100C4C002268154B9A4224D14FF40063019301A8FA
:100C5C004FF48073089300F0BAFF08B1FFF792FFCE
:100C6C004FF0B0430320D3F8902042F40042C3F875
:100C7C0090209A6D42F480629A659B6D002203F479
:100C8C00806300931146009B00F000F9032000F0F4
:100C9C002FF90AB010BD00BF00280040FEE7FEE7A8
:100CAC00FEE7FEE7FEE770477047704700F0B0B80C
:100CBC00FFF702BE02F07CBF02F02ABF00F080BA40
:100CCC00164AD2F8883043F47003C2F888304FF0DB
:100CDC00B0436FF482701A6842F001021A604FF44C
:100CEC00E0229A601968A2F1A26202440A401A60DA
:100CFC00D3F8942022F00502C3F89420D3F898205E
:100D0C0022F00102C3F89820054ADA601A6822F42E
:100D1C0080221A6000229A61704700BF00ED00E04B
:100D2C0000100422D458C4500433C4188C42F9D394
:100D3C007047036004308842FBD370470C488546EB
:100D4C00FFF7BEFF0B480C490C4A0023FFF7EDFFE1
:100D5C000B480C490C4A0023FFF7E7FF0B480C49E2
:100D6C000023FFF7E8FF03F0CDF8FFF769FEFEE77D
:100D7C0000800020080000203800002038420008C5
:100D8C00E4010320670A0320AE420008840000201F
:100D9C0008040020FEE7000038B5104C2378054607
:100DAC000BB9012038BD00F035FB22784FF47A7373
:100DBC00B3FBF2F3B0FBF3F000F0BAF804460028F2
:100DCC00EFD10F2DEDD8024629464FF0FF3000F041
:100DDC005DF8034B20461D60E4E700BF10000020C7
:100DEC0014000020094A136843F4807310B50320E3
:100DFC00136000F039F80F20FFF7CEFF044618B946
:100E0C00FFF7C2FE204610BD0124FBE7004000584E
:100E1C00034A044B11681B780B441360704700BFE6
:100E2C00C401002010000020014B1868704700BF5F
:100E3C00C4010020014B1868704700BF140000204B
:100E4C00014B1878704700BF100000204FF0E022D3
:100E5C00136923F00203136170474FF0E02213690A
:100E6C0043F00203136170470749CA6822F4E06239
:100E7C000302120403F4E063120C134343F0BF6348
:100E8C0043F40033CB60704700ED00E0164B30B5F7
:100E9C00DC68C4F30224C4F10703251D042B28BF0E
:100EAC000423062D4FF0FF358CBF033C002405FABC
:100EBC0003F321EA0303A54022EA0502A34000281C
:100ECC0043EA0203ACBF00F16040084A4FEA031347
:100EDC00B8BF00F00F00DBB2AABF00F5614013549D
:100EEC0080F8003330BD00BF00ED00E014ED00E0F1
:100EFC00002807DB044A4109012300F01F0083404E
:100F0C0042F82130704700BF00E100E000280CDB04
:100F1C004309064900F01F0020330122824041F8AA
:100F2C002320BFF34F8FBFF36F8F704700E100E0BA
:100F3C000138B0F1807F0BD24FF0E023054A5861A5
:100F4C00F02182F823100020072298611A61704763
:100F5C000120704700ED00E0002808DB430904493C
:100F6C0000F01F0001224033824041F823207047DB
:100F7C0000E100E0002808DB4309044900F01F00F1
:100F8C0001226033824041F82320704700E100E0E9
:100F9C0010B5044608B9012010BD437F03F0FF02D1
:100FAC0013B90277FFF708FE022363772379E3B9BD
:100FBC002368134A5A619A6822F018029A6062797F
:100FCC002368D2B94FF0FF321A619A68616922F036
:100FDC0060020A439A609A68A16922F080020A436F
:100FEC009A60012363770020D6E7D4E902122046E9
:100FFC0000F008F80028E2D0CDE72269E4E700BF52
:10100C00B71DC104CB0710B50DD51F23013B1DD354
:10101C0021FA03F4E407F9D5102A13D0102A04D8C6
:10102C003AB1082A10D001200BE0182AFBD1062B6C
:10103C00F9D800684161836823F018031343836077
:10104C00002010BD072BF3E70F2BF1E7102AE5D199
:10105C00E9E700002DE9F04F544C00234FF00F0945
:10106C000A6832FA03F501D1BDE8F08F012505FAC3
:10107C0003F818EA020200F090804E68032706F08D
:10108C0003054FEA430E07FA0EFC6F1E012F6FEAA1
:10109C000C0C32D8876807EA0C0ACF6807FA0EF7EF
:1010AC0047EA0A078760476827EA0808C6F300176B
:1010BC009F4047EA08074760C76807EA0C088F6833
:1010CC0007FA0EF747EA0807022DC76017D14FEA57
:1010DC00D30800EB880803F0070AD8F820704FEA11
:1010EC008A0A09FA0AFB27EA0B0B0F6907FA0AF7B7
:1010FC0047EA0B07C8F8207001E0032DDCD1076824
:10110C0005FA0EF507EA0C073D4316F4403F05605F
:10111C0043D023F0030707F1804707F5803703F02E
:10112C00030EBD684FEA8E0E09FA0EFCB0F1904F1B
:10113C0025EA0C0C33D01E4DA84232D005F5806543
:10114C00A84230D005F50065A84214BF0725042538
:10115C0005FA0EF545EA0C05BD602568D74316F473
:10116C00801F0CBF3D4015432560656816F4001FB9
:10117C000CBF3D4015436560D4F8805016F4803F99
:10118C000CBF3D401543C4F88050D4F88450B603CE
:10119C0054BF3D401543C4F88450013360E700252B
:1011AC00D6E70125D4E70225D2E700BF0008005896
:1011BC00000400480AB18161704781627047704732
:1011CC0008B5054BD8681A6822EA00021A60586004
:1011DC00FFF7F5FF08BD00BF0015005870477047BA
:1011EC000449054A00F1180340F8041F9842826133
:1011FC00FAD17047EB110008E911000838B5044624
:10120C00C8B190F838300BB9FFF7EAFC0B4B00254E
:10121C004FF03F121D605A603F229A601A6842F0EC
:10122C0001121A602046FFF7DBFF0123656384F887
:10123C003830284638BD0120FCE700BF000C0058B0
:10124C00024A136843F4807313607047000400581B
:10125C000B4A136823F0070343F002031360094B96
:10126C001A69012842F004021A6105D130BF1A69CB
:10127C0022F004021A61704740BF20BF20BFF6E77E
:10128C000004005800ED00E04FF0B043D3F8940098
:10129C00C0F3400070474FF0B0431868C0F34000F3
:1012AC0070474FF0B042136823F0F0030343136010
:1012BC0070474FF0B042536823F47F4343EA002356
:1012CC00536070474FF0B042B028D2F80821234B3E
:1012DC00234988BFDB6A70B598BF0009214C98BFC1
:1012EC0053F82030204E02F00F0288B051F8222023
:1012FC00B3FBF2F3B3FBF6F694E80F006D46103433
:10130C0085E80F0094E80F0008AC04E90F000023F7
:10131C0055F8042B964215D808AA02EB830353F810
:10132C00104C124D2B6823F0070323432B60FFF75F
:10133C007BFD06462B6803F007039C4207D1002077
:10134C0008B070BD0133042BE2D10024E9E7FFF7AC
:10135C006BFD801B0228EDD90320F1E770410008DA
:10136C00B0410008A83F000840420F000040005860
:10137C004FF0B0439A6812F00C020AD11B68224A53
:10138C0003F0F003B02B28BFB0231B0952F8230045
:10139C007047042A35D0082A07D11B681B4813F460
:1013AC00801F1B4B18BF18467047DA6802F0030207
:1013BC00022A24D0032A1B6817D113F4801F144B64
:1013CC00124918BF19464FF0B043D868DA68DB6889
:1013DC00C0F30620C2F302125B0F48430132013303
:1013EC00B0FBF2F0B0FBF3F0704703F0F003B02B5E
:1013FC0028BFB023044A1B0952F82310E3E7044921
:10140C00E1E70348704700BF704100080048E8015D
:10141C000024F40008B5FFF7ABFF4FF0B043044ACB
:10142C009B68C3F3031352F82330B0FBF3F008BDF1
:10143C00B0410008F8B50446002800F09B80036812
:10144C009D0632D54FF0B042C1699368D26813F053
:10145C000C0307D00C2B40F08F8002F00303012B00
:10146C0040F08A80002900F085804FF0B043616A1B
:10147C001B6803F0F003B02B28BFB0239942084639
:10148C006ED9FFF71FFF002874D1606AFFF709FFC0
:10149C00206AFFF70EFFFFF7BDFFB24B1860B24B8F
:1014AC001868FFF779FC002864D12368D80711D598
:1014BC004FF0B0429368D168626803F00C03082BBC
:1014CC0006D00C2B40F0848001F00303032B7FD15A
:1014DC00002A4FD023689B071BD54FF0B042E16820
:1014EC009368D26803F00C03042B07D00C2B40F04C
:1014FC00998002F00303022B40F09480002939D02C
:10150C004FF0B0422169536823F0FE4343EA016374
:10151C005360236813F0180F40F0AF80236859070D
:10152C0000F14B812368590640F1B081A36A4FF05A
:10153C00B045002B00F09781D5F8983043F00103AB
:10154C00C5F89830FFF770FC0646D5F898309A0726
:10155C0000F19C81FFF768FC831B022BF5D924E07A
:10156C00FFF79FFE206AFFF7A4FE0846FFF7AAFECE
:10157C00002890D0012019E04FF0B0431A68B1B1A7
:10158C0042F001021A60FFF74FFC0546FFF783FE9D
:10159C0030B1606AFFF785FE206AFFF78AFE84E7A8
:1015AC00FFF742FC401B0228F0D90320F8BD22F0C3
:1015BC0001021A60FFF738FC0546FFF76CFE0028A5
:1015CC003FF473AFFFF730FC401B0228F5D9ECE772
:1015DC004FF0B045B2F5803F2B6811D143F4803306
:1015EC002B60FFF721FC4FF0B0460546336899039A
:1015FC003FF570AFFFF718FC431B642BF6D9D4E70B
:10160C0023F480332B60002AEBD1FFF70DFC064648
:10161C002B689A037FF55EAFFFF706FC831B642BE8
:10162C00F6D9C2E74FF0B0452B68B1B143F48073E3
:10163C002B60FFF7F9FB06462B685F0505D4FFF717
:10164C00F3FB831B022BF7D9AFE76B68226923F0FE
:10165C00FE4343EA02636B605BE723F480732B6009
:10166C00FFF7E2FB06462B6858057FF552AFFFF7F4
:10167C00DBFB831B022BF6D997E762694FF0B04571
:10168C00002A73D0DA0647D5FFF7FEFDA0B14FF064
:10169C00B045D5F8943043F00403C5F89430FFF707
:1016AC00C3FB0646D5F894301B0718D4FFF7BCFBD8
:1016BC00831B032BF6D978E7D5F8943043F001035C
:1016CC00C5F89430FFF7B0FB0546FFF7DDFD0028A9
:1016DC00DDD1FFF7A9FB401B0228F6D965E7D5F849
:1016EC009430A26923F4706343EA0223C5F8943062
:1016FC00D5F8943023F00103C5F89430FFF794FB30
:10170C000546FFF7C1FD00283FF408AFFFF78CFB3F
:10171C00401B0228F5D948E7D5F8943043F0010373
:10172C00C5F89430FFF780FB0546FFF7ADFD90B18F
:10173C004FF0B046D6F8943023F00403C6F894303A
:10174C00D6F894301F077FF5E9AEFFF76DFB401B11
:10175C000328F5D929E7FFF767FB401B0228E4D9DA
:10176C0023E700BF0C00002014000020D5F89430B3
:10177C0023F00403C5F89430FFF756FB0646D5F862
:10178C009430180713D4D5F8943023F00103C5F81E
:10179C009430FFF749FB0546FFF776FD00283FF430
:1017AC00BDAEFFF741FB401B0228F5D9FDE6FFF764
:1017BC003BFB831B032BE2D9F7E6804E3368D9053C
:1017CC001CD5A368012B4FF0B04525D1D5F890302E
:1017DC0043F00103C5F89030FFF726FB4FF0B047FC
:1017EC00054641F28836D7F890309B073FF59AAE04
:1017FC00FFF71AFB431BB342F5D9D6E6FFF720FDE2
:10180C00FFF712FB05463368DA05DAD4FFF70CFB59
:10181C00401B0228F7D9C8E6052B06D1D5F8903025
:10182C0043F00403C5F89030D0E7D5F8902022F0AF
:10183C000102C5F89020D5F8902022F00402C5F8DA
:10184C009020002BC8D1FFF7EFFA41F288370646FB
:10185C00D5F8903098077FF565AEFFF7E5FA831B56
:10186C00BB42F5D9A1E6D5F8983023F00103C5F8B1
:10187C009830FFF7D9FA0646D5F898309B0705D56E
:10188C00FFF7D2FA831B022BF6D98EE6E16A09B96F
:10189C0000208BE64FF0B0450229AA68EB6802F0F5
:1018AC000C0270D1206B03F00301814218D1606BE4
:1018BC0003F07001814213D1A06BC3F30621814266
:1018CC000ED1E06B03F47811814209D1206C03F046
:1018DC006061814204D1616C03F060438B423BD068
:1018EC000C2A3FF447AE4FF0B0452B6823F08073C1
:1018FC002B60FFF799FA06462B689F0126D4D4E992
:10190C000C32E96813432E4A0A401343E26B13432B
:10191C00226C1343626C1343A26B43EA0223EB6009
:10192C002B6843F080732B60EB6843F08053EB60C3
:10193C00FFF77AFA4FF0B04504462B689801A7D40C
:10194C00FFF772FA001B0228F7D92EE6FFF76CFAA4
:10195C00801B0228D0D928E62B68990198D42B68D3
:10196C0043F080732B60EB6843F08053EB60FFF720
:10197C005BFA04462B689A018AD4FFF755FA001BD0
:10198C000228F7D911E60C2A3FF4F4AD2B6823F0AA
:10199C0080732B60FFF748FA04462B689B0106D432
:1019AC00EB6823F0805323F00303EB6070E7FFF741
:1019BC003BFA001B0228F0D9F7E500BF00040058E1
:1019CC008C80C1112DE9F0410D46044610B901205F
:1019DC00BDE8F081784E336803F007038B4216D3D1
:1019EC0023689A0727D54FF0B047A268BB6823F04D
:1019FC00F0031343BB60FFF717FA0646BB68DB0323
:101A0C0019D4FFF711FA831B022BF7D911E03368B5
:101A1C0023F007030B433360FFF706FA07463368DE
:101A2C0003F00703AB42DBD0FFF7FEF9C01B022823
:101A3C00F5D90320CCE72368980616D54FF0B047AC
:101A4C006269D7F8083123F0F0031343C7F8083163
:101A5C00FFF7EAF90646D7F80831990305D4FFF7E2
:101A6C00E3F9831B022BF6D9E3E723685A0617D553
:101A7C004FF0B047A269D7F8083123F00F0343EABF
:101A8C001213C7F80831FFF7CFF90646D7F808311B
:101A9C00DB0305D4FFF7C8F9831B022BF6D9C8E783
:101AAC0023685E0713D54FF0B047E268BB6823F498
:101ABC00E0631343BB60FFF7B7F90646BB689803B6
:101ACC0005D4FFF7B1F9831B022BF7D9B1E72368D3
:101ADC00190714D54FF0B0472269BB6823F4605343
:101AEC0043EAC203BB60FFF79FF90646BB685A0383
:101AFC0005D4FFF799F9831B022BF7D999E72368D3
:101B0C00DB070FD42C4C236803F00703AB4240D8FF
:101B1C00FFF780FC294B1860FFF78CF9BDE8F0410A
:101B2C00FFF73AB96268022A1FD14FF0B0431B6825
:101B3C0013F4003F3FF44BAF4FF0B04641F28838FE
:101B4C00B36823F003031343B360FFF76DF9074643
:101B5C00B368626803F00C03B3EB820FD2D0FFF7CB
:101B6C0063F9C01B4045F3D963E7032A05D14FF055
:101B7C00B0431B6813F0007FDCE722B9FFF78BFB47
:101B8C000028D9D123E74FF0B0431B6813F4806FC2
:101B9C00D0E7236823F007032B432360FFF744F9B6
:101BAC000646236803F00703AB42B1D0FFF73CF9BC
:101BBC00801B0228F5D93CE7004000580C0000209F
:101BCC004FF0B043D3F89000C0F340007047036867
:101BDC0070B51D05044614D54FF0B045C369D5F852
:101BEC00906006F44076B3420BD0FFF729FBD5F892
:101BFC009030002E7FD1E26923F440731343C5F873
:101C0C00903000202368D90709D54FF0B0416568A2
:101C1C00D1F8882022F003022A43C1F88820DA0682
:101C2C000CD5E6684FF0B045310CD5F88820090486
:101C3C0022EA010242EA0642C5F888209E060CD52B
:101C4C0026694FF0B045310CD5F88820090422EAFA
:101C5C00010242EA0642C5F888205D070FD5A2684A
:101C6C004FF0B0461509D6F8881005F47F251201FF
:101C7C0021EA050102F47F220A43C6F8882099055F
:101C8C0019D5616931F080424FF0B042D2F88850DA
:101C9C0025F0404502D0B1F1004F54D10D43B1F1C4
:101CAC00C05F08BF4FF0B041C2F8885002BFCA688D
:101CBC0042F08072CA605A0510D54FF0B041A56948
:101CCC00D1F8882022F040522A43C1F88820B5F17F
:101CDC00005F02BFCA6842F48032CA60DB0409D5D7
:101CEC004FF0B042216AD2F8943023F440430B43B6
:101CFC00C2F8943070BDD5F8902042F48032C5F80B
:101D0C009020D5F8902022F48032C5F89020E2691A
:101D1C0023F440731343C5F89030D5F89030D807AE
:101D2C007FF56FAFFFF780F841F288360546FFF775
:101D3C0047FF01283FF465AFFFF776F8401BB04230
:101D4C00F5D903205EE7C2F88850D2F8886021F0FC
:101D5C00805526F040663543A1E7026838B5D36854
:101D6C0023F0A003D3600446FFF75EF80546236812
:101D7C00DB689B0601D5002038BDFFF755F8401BEA
:101D8C00B0F57A7FF3D90320F6E738B50368DA6843
:101D9C005206044601D5002038BD4FF0FF32DA6000
:101DAC00FFF742F805462368DB685B06F3D4FFF7C0
:101DBC003BF8401BB0F57A7FF5D90320ECE7000027
:101DCC0038B50446F0B190F8213003F0FF021BB98E
:101DDC0080F82020FEF72CFF022384F82130284BBA
:101DEC00DB68DB0647D42368CA225A6253225A6244
:101DFC002046FFF7CAFF236830B1FF225A62042342
:101E0C0084F82130012038BD9A68206922F4E00260
:101E1C0022F040029A60626899680243A06902430A
:101E2C000A439A60E2681A611A69A168606942EA19
:101E3C0001421A61DA6822F08002DA60DA6C22F070
:101E4C000302DA64E269D96C02430A43DA649D68DE
:101E5C0015F020050CD12046FFF77FFF40B1236819
:101E6C00FF225A62042384F8213084F82050C9E7F9
:101E7C002368FF225A62012384F821300020C2E734
:101E8C0000280040F8B590F82030012B04460E468F
:101E9C0015464FF0020058D0012384F820302368F7
:101EAC0084F82100CA225A6253225A629B68580550
:101EBC0034D42268936823F480639360D368DBB2D4
:101ECC0063F49063D360FEF7AFFF07462368DA68CC
:101EDC0052073BD55E619A6822F007029A609A68B5
:101EEC002A439A601D4AD2F8801041F40021C2F8AE
:101EFC008010116841F4002111609A6842F480420C
:101F0C009A609A6842F480629A60FF225A620020BA
:101F1C00012384F8213084F8200016E0FEF784FFBA
:101F2C0007462368DB685907C3D5FEF77DFFC01B46
:101F3C00B0F57A7FF5D92368FF225A62032384F81F
:101F4C002130002384F820300320F8BDFEF76CFF0D
:101F5C00C01BB0F57A7FB9D9EDE700BF0008005877
:101F6C0070B590F82030012B04464FF0020030D0B1
:101F7C00012384F82030236884F82100CA225A6295
:101F8C0053225A629A6822F480629A609A6822F408
:101F9C0080429A60FEF748FF06462268D56815F025
:101FAC00040508D0FF2353620020012384F821305C
:101FBC0084F820000DE0FEF737FF801BB0F57A7F28
:101FCC00EBD92368FF2203205A6284F8210084F89D
:101FDC00205070BD10B5002488B01822214602A8EC
:101FEC008DF8074000F0A8FB084B02930DF1070396
:101FFC0006932146012302A8079300F0E1FCA042BE
:10200C00ACBF9DF80700FF2008B010BD3F00810059
:10201C002DE9F04FCBB09C469DF85461ADF82B20C8
:10202C009DF850219DF85C518DF828000AAC06F102
:10203C0008034FF00008ADF829108DF82E205699A2
:10204C008DF82DC032460CA804EB030B01938DF8D0
:10205C002F608DF80F8000F06DFB019B5899E554B3
:10206C0005F1090737442A460BF1010000F062FB29
:10207C0004EB070ABDF86431E353BDF86831AAF8E4
:10208C00023018224146093604A800F055FB3544AD
:10209C000A4B04930DF10F0901230435414604A8A2
:1020AC00CDE907590694099300F08AFC4045ACBF72
:1020BC009DF80F00FF204BB0BDE8F08F3F00830070
:1020CC0070B5C8B000258DF820001822294602A84A
:1020DC008DF8075000F030FB0A4B02930DF107040A
:1020EC00012308AE294602A8CDE9053404960793CE
:1020FC0000F066FCA842ACBF9DF80700FF2048B07A
:10210C0070BD00BF3F00850070B5C8B000268DF8CB
:10211C0023309DF830318DF824309DF834318DF812
:10212C0025309DF838318DF826304F9B8DF82000E6
:10213C008DF821108DF82220CDF8273018229DF82B
:10214C0040318DF82B30314602A88DF8076000F035
:10215C00F3FA0B4B02930DF107050C23CDE9053572
:10216C0008AC0123314602A80494079300F028FC24
:10217C00B042ACBF9DF80700FF2048B070BD00BF57
:10218C003F00860070B5C8B00025ADF82000CDF832
:10219C0022101822294602A88DF8075000F0CCFA1C
:1021AC000A4B02930DF107040623CDE9053408AE62
:1021BC000123294602A80496079300F001FCA842CB
:1021CC00ACBF9DF80700FF2048B070BD3F008800F1
:1021DC002DE9F041C8B080460F4616460021072273
:1021EC0068461D4600F0A8FA1822002102A88DF8B6
:1021FC0020808DF821708DF8226000F09DFA144B30
:10220C0002930323059308AC0723002102A804942E
:10221C00CDF818D0079300F0D3FB002816DB9DF8FF
:10222C00000080B9009BC3F30F232B809DF8042082
:10223C009DF8033043EA02234E9A1380019B4F9A78
:10224C00C3F30F23138048B0BDE8F081FF20FAE7F9
:10225C003F008A00F0B5C9B000268DF82000024678
:10226C0004460DF121008DF8076000F063FA182286
:10227C00314602A800F060FA0A4B02930DF10705F3
:10228C00012308AF0134314602A8CDE90545049776
:10229C00079300F095FBB042ACBF9DF80700FF2000
:1022AC0049B0F0BD3F008E0070B5C8B000258DF868
:1022BC0020001822294602A88DF8075000F03CFA9D
:1022CC000A4B02930DF10704012308AE294602A81C
:1022DC00CDE905340496079300F072FBA842ACBF1D
:1022EC009DF80700FF2048B070BD00BF3F008F0075
:1022FC0010B5002488B01822214602A88DF807409A
:10230C0000F01AFA084B02930DF1070306932146CD
:10231C00012302A8079300F053FBA042ACBF9DF829
:10232C000700FF2008B010BD3F00920070B5C8B088
:10233C000025ADF820008DF822101822294602A89D
:10234C008DF8075000F0F8F90A4B02930DF10704D1
:10235C000323CDE9053408AE0123294602A80496CF
:10236C00079300F02DFBA842ACBF9DF80700FF209F
:10237C0048B070BD3F00A50010B5002488B01822ED
:10238C00214602A88DF8074000F0D6F9084B0293BD
:10239C000DF1070306932146012302A8079300F0D1
:1023AC000FFBA042ACBF9DF80700FF2008B010BD8A
:1023BC003F0001012DE9F04F0128C9B004468A46BF
:1023CC0091461F463BD002280CBF4FF011084FF02E
:1023DC00010801AD03220021284608AE00F0ACF93B
:1023EC00012C34702ED0022C2ED1102406EB080BAD
:1023FC00224651460DF1210000F09CF906F8089098
:10240C00182200218BF8017002A800F095F9104BEE
:10241C00029303340323002102A8CDE90545049659
:10242C00079300F0CDFA002810DB287820B92B6830
:10243C00529AC3F30F23138049B0BDE8F08F4FF0CD
:10244C000308C6E70224D1E79720F5E7FF20F3E75E
:10245C003F0002012DE9F0430129C9B006460C46A4
:10246C009146984647D002290CBF1327032708AD85
:10247C000322002101A800F05FF9012C2E80AC7022
:10248C003BD0022C3BD11024EE19224649460DF1CB
:10249C00230000F04FF99DF8403125F80780B37008
:1024AC009DF84431F3709DF8483133719DF84C31EF
:1024BC0073719DF85031B3711822002102A800F0FD
:1024CC003BF90A34104B02930594032301AC002111
:1024DC0002A804950694079300F072FA002810DB0A
:1024EC009DF8040020B9019B559AC3F30F23138068
:1024FC0049B0BDE8F0830527B9E70224C4E797206B
:10250C00F6E7FF20F4E700BF3F000401F0B5C9B0C7
:10251C000027ADF82000ADF822108DF824204E993C
:10252C008DF825301A460DF126001C468DF80770E3
:10253C0000F000F91822394602A800F0FDF80B4B08
:10254C0002930DF10706012308AD0634394602A8A3
:10255C00CDE905460495079300F032FAB842ACBFBA
:10256C009DF80700FF2049B0F0BD00BF3F000601F9
:10257C0070B5C8B00025ADF820001822294602A875
:10258C008DF8075000F0D8F80A4B02930DF10704B0
:10259C000223CDE9053408AE0123294602A804968E
:1025AC00079300F00DFAA842ACBF9DF80700FF207E
:1025BC0048B070BD3F002501F0B5C9B00C460026EF
:1025CC0011468DF8200022460DF122008DF8214095
:1025DC008DF8076000F0AEF81822314602A800F022
:1025EC00ABF80B4B02930DF10705012308AF023436
:1025FC00314602A8CDE905450497079300F0E0F9B0
:10260C00B042ACBF9DF80700FF2049B0F0BD00BF41
:10261C003F000C0070B5C8B000258DF820008DF877
:10262C0021101822294602A88DF8075000F084F8D2
:10263C000A4B02930DF107040223CDE9053408AED1
:10264C000123294602A80496079300F0B9F9A84281
:10265C00ACBF9DF80700FF2048B070BD3F000F00D5
:10266C0070B5C8B00025ADF820001822294602A884
:10267C008DF8075000F060F80A4B02930DF1070437
:10268C000223CDE9053408AE0123294602A804969D
:10269C00079300F095F9A842ACBF9DF80700FF2006
:1026AC0048B070BD3F00180010B5002488B0182247
:1026BC00214602A88DF8074000F03EF84FF00313B6
:1026CC0002930DF1070306932146012302A80793F9
:1026DC0000F076F9A042ACBF9DF80700FF2008B0CF
:1026EC0010BD000070B5C8B000268DF820008DF824
:1026FC0021108DF822203146182202A88DF807608F
:10270C0000F01AF80A4B02930DF107050323CDE9EB
:10271C00053508AC0123314602A80494079300F058
:10272C004FF9B042ACBF9DF80700FF2048B070BD18
:10273C000800310001F00ABC01F0DCBB70477047A7
:10274C0070477047704770477047704770477047C5
:10275C00704770477047704770477047704708B5AF
:10276C00FFF7ECFFFFF7EBFFFFF7EAFFFFF7E9FFDF
:10277C00FFF7E8FFFFF7E7FFFFF7E6FFFFF7E5FFDF
:10278C00FFF7E4FFFFF7E3FFFFF7E2FFFFF7E1FFDF
:10279C00FFF7E0FFFFF7DFFFFFF7DEFFFFF7DEFFDE
:1027AC00FFF7DBFF01F004F908BD000008B5044A8F
:1027BC0000231377034A1370FFF7D1FF08BD00BF46
:1027CC003C00002038000020034A137F42F823000D
:1027DC0001331377704700BF3C00002070B543787D
:1027EC00FF2B04460CD1B0F8033003F47F43B3F550
:1027FC00406F05D10A4E0025327FEBB29A4204D8C5
:10280C002046BDE8704000F031BC56F8233020461D
:10281C00984701350028EFD0023818BF012070BD51
:10282C003C0000201FB500F10C026B462E214FF628
:10283C00664000F0D3F99DF80E0005B05DF804FB7E
:10284C001FB500F10C026B460F214FF6684000F0EB
:10285C00C5F99DF80E0005B05DF804FB1FB50246E6
:10286C006B4610214FF6754000F0B8F99DF80E003C
:10287C0005B05DF804FB00001D4B1E4ADB6B9B0092
:10288C009BB203F1005303F5403370B51B68196814
:10289C0091420FBFD3E905241A695C6959680EBFD0
:1028AC00DD699D699B684FEA126608BFD3E9031383
:1028BC000670160C4670160A8670C2F3031602F0E8
:1028CC000F020271220E4271220C8271220AC27115
:1028DC000A0E82720A0CC2721A0E4273090A1A0C80
:1028EC00C6700472457201738273C373002070BD8D
:1028FC0000400058B95646A930B50F4D0F4B4A68E9
:10290C00E8610C4685B028461A6000F0DDF80C48EA
:10291C00246800F0F7FA0B4B0B481C6000F0F2FA3D
:10292C000A4B01221A702B6823B1094A02940092B7
:10293C006846984705B030BDD8010020CC01002076
:10294C00D001002060000020640000205C0000200A
:10295C00A12A00081FB5174800F0D7FAB8B9164CD1
:10296C002378A3B1134801A900F0FCFA134BDA69E0
:10297C000123C2B101998DF80830039102A8904748
:10298C009DF80830237083B1019800F079FA09485A
:10299C0000F0BBFA28B9084B1B7813B1054800F0BE
:1029AC00CFFF04B010BD2370EEE70199014800F091
:1029BC00B6FAECE7640000205C000020D80100208F
:1029CC002DE9F7432E4E336804460BB1002098478F
:1029DC00638822882B48DFF8B8900068C3F309039A
:1029EC0043EA8223284A01211170D4E902120C30E7
:1029FC0020F8033C00F8012CD2B21FFA83F801F046
:102A0C00A5FA224B00211B690846984748F2E800BA
:102A1C0000F09DFF0027484600F077FA48B1002FE0
:102A2C00F4D033680BB101209847002003B0BDE807
:102A3C00F08301A9484600F095FA019D6B7A0F2BA3
:102A4C000BD1B5F80D30434502BF2369EA7A1A70F1
:102A5C002B7B002BDFD00127DDE7AB8943450CD165
:102A6C00AA7A63692069033AD2B29A42A8BF1A467D
:102A7C00626105F10E0101F069FAEB7AE9E700BF3A
:102A8C00CC01002060000020C8010020D8010020EB
:102A9C00D001002008B5437A0E3B012B014606D825
:102AAC00074800F048FA002000F04EFF08BD05482A
:102ABC0000F041FABDE80840024800F041BF00BFF9
:102ACC00D001002064000020024B0360024B036124
:102ADC00704700BF152D00085D2D000810B5054C82
:102AEC000146204600F027FA2046BDE81040FDF7CD
:102AFC003CBC00BF79000020034B01201870034B35
:102B0C001B6803B11847704778000020FC010020B7
:102B1C0030B5104D104B4A68E8610C4685B028461C
:102B2C001A6000F09FF80D4B24680D481C6000F0F3
:102B3C00E9F9FFF7E1FF0B4B01221A702B6833B157
:102B4C00094A0192094A0394029201A8984705B0D8
:102B5C0030BD00BF00020020FC01002074000020EA
:102B6C007900002070000020652C0008E92A00087C
:102B7C001FB5174800F0C9F9B8B9164C2378A3B1A2
:102B8C00134801A900F0EEF9134BDA690123C2B125
:102B9C0001998DF80830039102A890479DF80830F0
:102BAC00237083B1019800F06BF9094800F0ADF97E
:102BBC0028B9084B1B7813B10548FDF7D6FB04B0B8
:102BCC0010BD2370EEE70199014800F0A8F9ECE77D
:102BDC007900002070000020000200202DE9F8434D
:102BEC001D46184B1B6807460C4616460BB10020B9
:102BFC009847DFF86080144BD8F800004FF00009BC
:102C0C00A0F80970C472224631460C3083F800904B
:102C1C0001F09CF90D4B01221A700D4B49461B69B2
:102C2C004846984748F2E800FDF7A6FBD8F8001094
:102C3C008A7805F10800033201F088F9BDE8F84301
:102C4C00FFF75ABFFC01002078000020F80100209B
:102C5C00000200207400002008B50020FDF789FB5D
:102C6C0008BD0000024B0360024B0361704700BFBC
:102C7C00B12D0008ED2D000837B5094C094D084859
:102C8C0000F043F908B103B030BD01A9204600F0B3
:102C9C0069F92B690199186900F04DF9EFE700BF4C
:102CAC00300200200000032000F0C6BE0B4B0C4A83
:102CBC001A600C4A5A600C4A9A600C4A1A620C4A06
:102CCC005A620C4ADA600C4A1A610C4A5A610C4A74
:102CDC009A610C4ADA6100F0D7BE00BF00000320F5
:102CEC00B8000320A80003209800032090000320C4
:102CFC008800032080000320640003206000032070
:102D0C00540003204800032038B50C4D04462846D7
:102D1C0000F0F8F80A4BA2685B681A60E268DA60A7
:102D2C00084AC3E9012500F0CFFE074B22681A6060
:102D3C00064B62681A60002038BD00BF30000320CB
:102D4C0000000320580A03202C0200202802002037
:102D5C0008B5054B5A685B6812680121117200F0C6
:102D6C00BBFE002008BD00BF0000032037B5084C97
:102D7C00084D074800F0C9F808B103B030BD204633
:102D8C0001A900F0EFF82B6801989847F1E700BF14
:102D9C00300003202C020020014B1B68184700BF99
:102DAC002802002038B50A4D0446284600F0AAF83F
:102DBC00084BA268DB68C3E9002500F095FE064BC2
:102DCC0022681A60054B62681A60002038BD00BF8B
:102DDC0028000320000003202402002020020020F1
:102DEC0008B5054BDA68DB6812681021117200F027
:102DFC0083FE002008BD00BF00000320034BDA68EF
:102E0C00DA68034B10681B68184700BF00000320EA
:102E1C002402002037B5084C084D074800F075F81F
:102E2C0008B103B030BD204601A900F09BF82B6817
:102E3C0001989847F1E700BF2800032020020020EA
:102E4C0038B50C4D0446284600F05CF80A4800F0F2
:102E5C0059F80A4BA2681B699A60E268C3E903251A
:102E6C0022681A6062685A6022695A6162699A61C2
:102E7C0038BD00BF400003203002002000000320BA
:102E8C0008B50146034800F056F8BDE80840024872
:102E9C0000F070BE30020020852C000810B5054CE7
:102EAC00204600F02FF8044B5B691C60BDE8104015
:102EBC0000F076BE380003200000032070470000AD
:102ECC0013B5074C064800F020F808B102B010BD4D
:102EDC00204601A900F046F80198FFF7EFFFF1E753
:102EEC00380003200346054A0548C179994202D0AF
:102EFC00904201D1002070470838F6E70070FF1FA0
:102F0C00F873FF1F006040607047EFF3108372B6D8
:102F1C000268821A5042504183F310887047EFF3D5
:102F2C00108372B602680A60486001600A685160DA
:102F3C0083F310887047EFF3108372B60860426811
:102F4C004A6041604A68116083F310887047EFF360
:102F5C00108272B643680168196001684B6082F395
:102F6C001088704710B5EFF3108472B603680B60CD
:102F7C000068FFF7ECFF84F3108810BDF0B5002358
:102F8C000E1853F802C01D1800242CFA04F7182C44
:102F9C0005F8017B03D104339942F2D803E0B54222
:102FAC0004F10804F1D1F0BD10B5044640680830B6
:102FBC00FFF714FC003818BF0120207010BD000072
:102FCC0010B5054C94F88030052B04D0FFF702F8AF
:102FDC00002384F8803010BDC802002010B10128F5
:102FEC0003D07047032000F069BE032000F074BECC
:102FFC00F8B505464E1E471E4C1DFDF715FF16F87D
:10300C00013F4340A64207F8013FF6D16B7963F0CC
:10301C003F036B71F8BD000030B5124B89B0012530
:10302C0083F8805020220023CDE90533CDE903330A
:10303C00CDE90133009311460320FEF7E9FF0A2086
:10304C00FFF732F904462846FFF72EF90443E4B2A1
:10305C0034B905491F2009B0BDE83040FFF7FAB874
:10306C0009B030BDC8020020A302002010B543787F
:10307C003E2B17D0FF2B29D0052B11D1234C828846
:10308C00E38A9A4202BF0023E38284F88030FFF780
:10309C00C3FF1F4801230370E38A438000F05BFCED
:1030AC00012010BDC378012BFAD1184B93F8802066
:1030BC00042A14BF0522062283F88020B0F80520CC
:1030CC001348DA82002303704280E7E7B0F803303C
:1030DC0040F2094293420DD040F60E4293420FD07B
:1030EC0040F202429342DBD1084B0A49D88AFFF7DF
:1030FC0049F8D5E7054B0121D88AFFF717F9CFE737
:10310C00024BD88AFFF734FACAE700BFC802002086
:10311C00C202002007B2010030B5EAB91B4B0246CF
:10312C0003F11C0453F8045B42F8045BA342F9D18D
:10313C001C889B781480937001F11A048B1DC21D9E
:10314C0053F8045B42F8045BA342F9D11B8813804B
:10315C000B789B09437730BD012AFCD10C4B0246FE
:10316C0003F11C0453F8045B42F8045BA342F9D14D
:10317C001C889B7893701480083001F1140351F86B
:10318C00042B40F8042B9942F9D1E4E7C83F00081E
:10319C00E73F000810B482B90A7862F03F0242712E
:1031AC004A7802718A78C270CA7882700A79427041
:1031BC004A7902705DF8044B7047012AFAD15DF828
:1031CC00044BFFF715BF00002DE9F0410E460446F5
:1031DC0000284FD16D4D6E4F2B783A789A4212D011
:1031EC006C4A6D481C2101FB0322FFF7C7FE014608
:1031FC0022466A48FFF7CEFF674969482246FFF727
:10320C008BFF2B783B70674C23789BB162496348EA
:10321C000022FFF7BFFF604961480022FFF77CFFE7
:10322C005E4A06210020FFF7C7F90520FDF77AF862
:10323C0000232370FFF7F0FE1220FDF773F8FFF761
:10324C00BFFE0120FDF76EF8574A1388B3F5B47F23
:10325C00C0F09980002E00F0968054492B78098894
:10326C000133B3FBF1F001FB10332B7000231380FF
:10327C00BDE8F0810128FBD14D4D4E4F2A883B888B
:10328C00934231D014214A434B48DFF83C8102F180
:10329C00006202F10212FFF771FE01464046FFF791
:1032AC00A7FE464BD8F800201C703C4B1A60B8F8AF
:1032BC0004209A80424B3A4A03F11C0153F8040B48
:1032CC0042F8040B8B42F9D119889B7893703A4BD6
:1032DC0011803C4A03F1140153F8040B42F8040B1F
:1032EC008B42F9D12B883B802E4C2378012B30D08C
:1032FC00324F3B782BB930493348FFF779FE012325
:10330C003B70314A254B1168928819609A802C4B7E
:10331C00234A03F11C0153F8040B42F8040B8B42B3
:10332C00F9D119889B789370234B1180254A03F1AE
:10333C00140153F8040B42F8040B8B42F9D1174AD1
:10334C0006210020FFF738F90520FCF7EBFF0123DD
:10335C002370FFF761FE1220FCF7E4FFFFF730FE4D
:10336C000120FCF7DFFF194A1388B3F5B47F0AD3A9
:10337C004EB117492B8809880133B3FBF1F001FBDF
:10338C0010332B8072E7013371E700BF6B02002012
:10339C006A020020010003088702002019000020A7
:1033AC00A302002018000020660200206802002002
:1033BC006402002062020020730200206C020020D4
:1033CC00E73F0008AB0200206D0200205E020020E7
:1033DC0060020020024B034A1B68D05C704700BFA0
:1033EC0054030020280000202DE9F04FBC4DBD4CAB
:1033FC009DB000F021FC0023DFF868C32B60236034
:10340C0019461F461A4618461CF8016B002E40F050
:10341C0062810132012701300628F5D103B1216008
:10342C0007B12A60FFF7D6FFD5F800B0AE4EAF4F0C
:10343C003070BBF1000F07DDAD4A012107A8FFF783
:10344C009DFD9DF81C303B802368DFF81C83DFF862
:10345C001CA3DFF81C93002B40F3A781A54A022183
:10346C0008A8FFF78BFDBDF82030A8F80030BBF1A1
:10347C00000F0ADD3B8843B1FDF7D6FC3B88B0FB5F
:10348C00F3F202FB13008AF800002268B8F800304F
:10349C00002A0ADD4BB1FDF7C7FCB8F80030B0FBD1
:1034AC00F3F202FB1300A9F800003988B8F80020E9
:1034BC009AF800309142904A08BFA9F80030137076
:1034CC008E4A8F49B9F80070178000220A808D4906
:1034DC000A802A68002A06DD8B4A8C481C2101FBD5
:1034EC000322FFF74BFD2368002B10DD142101FB99
:1034FC0007F2874802F1006202F10212FFF73EFD6B
:10350C0001468448FFF774FD834B01221A70327810
:10351C00002A40F02F817D498048FFF73BFE32782E
:10352C007A497F48FFF7F8FD7E4B0DAA03F1380668
:10353C00154618685968144603C40833B34222462A
:10354C00F7D11B882380784B78480B930BAC784BC6
:10355C000C932146FFF7D0F90121022000F056FB15
:10356C000220744A002100F0B5FC2846FFF75AF9F6
:10357C0008B1FDF707FB0025ADF82450FFF794F8D0
:10358C006D4BD3F88015481C00F006816B4AD3F8BC
:10359C0084351170090A5170190A9370D170190C85
:1035AC001B0E1171537106210020FFF705F8644AB8
:1035BC00644D10211820FEF7FFFF634A10210820EC
:1035CC00FEF7FAFF1F210120FFF724F8FEF7D4FEC7
:1035DC00524A06210020FEF7EFFF0DF12A03019459
:1035EC00009308220AAB00210120FEF7F1FD574B96
:1035FC00BDF82A10009300220823BDF82800FEF71E
:10360C0085FF09ABBDF82C10009300220223BDF8F6
:10361C002800FEF77BFF0222012611460020FFF74F
:10362C0061F830462E70FEF74BFD494BAB60002421
:10363C0041F20802AA806E706C801021CDE903342F
:10364C000823CDE900310294234632463146204608
:10365C00FEF75AFDAB780BB1FEF74AFEFFF7A6F862
:10366C004FF6FF733B4AEB820021012085F8804026
:10367C0000F030FC0620FEF7F3FF00F06DF92C8310
:10368C00FFF7CAFC344A00214FF4007000F022FC12
:10369C004FF40070002100F0FBFA3048304B04610D
:1036AC00C0E900340F2247F6FF73C0E90223C0E9DA
:1036BC0006444461FEF784FB08B1FDF763FA274822
:1036CC00002245F20B01FEF7DDFB08B1FDF75AFABB
:1036DC001DB0BDE8F08F012E04BF013133469AE6D0
:1036EC0020000020240000205C0200206802002042
:1036FC0000000308000002086A0200206202002099
:10370C00660200205E0200200100030887020020F0
:10371C00730200206D0200206C02002019000020B2
:10372C00A302002006400008D8000320B52F000893
:10373C00E92F0008612900080070FF1F4C030020CE
:10374C0009420008C8020020F9410008F0410008B5
:10375C0007B20100CD2F0008713800083802002094
:10376C000028004028000020600200206B0200208E
:10377C00640200200F4C23782BB90F490F48FFF738
:10378C0037FC012323700D4A0D4B11689288196088
:10379C009A8009493278C4E62846FFF7A3FB094B07
:1037AC00002814BF02461A46FDE6BBF1000F3FF796
:1037BC0061AE7AE66C020020730200206D020020DC
:1037CC001900002019420008044A1368062101332D
:1037DC00B3FBF1F001FB103313607047540300206E
:1037EC0010B59AB04822002108A800F083FB1C22D7
:1037FC00002101A800F07EFBFDF722FD4FF0B04246
:10380C000024D2F8903023F0180343F01003C2F8D0
:10381C00903027224FF48033CDE9082301234FF455
:10382C008072CDE90A320F9340230C9308A8A02391
:10383C00CDE910431394FDF7FDFD08B1FDF7A2F996
:10384C006F23012101A8CDE90134CDE90344CDE971
:10385C0005440794FEF7B6F808B1FDF793F91AB0D2
:10386C0010BD000070B5334E334D01224FF4006192
:10387C004FF09040FDF79EFC337893B31E24012249
:10388C004FF400614FF09040FDF794FC6420FCF77E
:10389C0049FDFFF79FFD00212870FFF795FCFFF70E
:1038AC0093FF00224FF400614FF09040FDF782FC33
:1038BC004FF46170FCF736FD013CE0D101224FF46E
:1038CC0000614FF09040FDF775FC4FF47A70FCF7F7
:1038DC0029FD22464FF400614FF09040FDF76AFC41
:1038EC003470FFF777FD01212870FFF76DFCFFF7AF
:1038FC006BFF00224FF400614FF09040FDF75AFC33
:10390C00FDF7A4FA45F2545100220C48FEF7BAFA1E
:10391C000120FDF79DFC0948FEF722FBFFF760FF35
:10392C00FDF79BFABDE8704000214FF4007000F0E9
:10393C00AFB900BF080000205C0200203802002054
:10394C000021022000F0A4B9012000F0D1B901201F
:10395C0000F08EBA70477047704700007FB543780F
:10396C00FF2B03D0002007B05DF804FBB0F8033048
:10397C0040F60142934210D040F61B429342F1D1E3
:10398C00012382798DF80430437901A843EA02239C
:10399C00ADF81430FFF7DEFFE4E7044BB0F8072076
:1039AC005B8801339B1A58425841DCE758030020CE
:1039BC0030B51948194C8BB0FEF706FF184A194B55
:1039CC000094CDE90623184B0025CDE9083506A94E
:1039DC00032301220220FEF7EDFC144B0693A3F106
:1039EC008953A3F5B613A3F62C330793104B34F875
:1039FC00020B0195CDE9083510210123CDE90231E7
:103A0C00CDE90454082300930A4B06AA1B88022113
:103A1C00FEF720FD0BB030BD6939000858030020BB
:103A2C008FE5B3D52E7F4A982A487ACC19ED82AE11
:103A3C004145228E2E0000204FF0B04382B0D3F8C7
:103A4C00502142F48012C3F85021D3F8503103F4C2
:103A5C0080130193019B0A4B1A6A42F400721A629A
:103A6C00D3F8D42042F40072C3F8D42040BF20BF56
:103A7C00044AD36843F40043D36002B0704700BFDC
:103A8C0000080058000400584FF0B04307B51A6DF9
:103A9C0042F480121A651B6D03F480130193019B91
:103AAC00084B1A6842F001021A601A6842F480321C
:103ABC001A602C20FDF71CFA2D2003B05DF804EBE6
:103ACC00FDF716BA000C0058024A536823F00103A4
:103ADC0053607047000C0058024B4FF480329A60D0
:103AEC00704700BF000C0058024A536823F00203D1
:103AFC0053607047000C0058044B4FF400329A602E
:103B0C005A6822F400325A60704700BF000C00580B
:103B1C0010B5164CE368990709D463689A0306D468
:103B2C00636843F400336360FFF768F910BDE36822
:103B3C001B070DD4636818030AD4636843F400238D
:103B4C0063600B4B1B6898474FF40023A360EDE7B1
:103B5C00064BDA689106E9D45A689202E6D45A68A0
:103B6C0042F400125A60FFF717F9DFE7000C005817
:103B7C005C03002010B5084CE3681B0706D5074B07
:103B8C001860636823F40023636010BD80474FF412
:103B9C000023A360F9E700BF000C00585C03002071
:103BAC00024A536823F0080353607047000C005816
:103BBC0010B5104CE3699A0707D563689B0704D4CA
:103BCC00FFF728F90223A36010BDE369D80706D5D7
:103BDC006368D90703D4FFF7C9F80123F3E7054C51
:103BEC00E3691A07F0D563681B07EDD4FFF768F992
:103BFC000823E8E7000C0058024A00231360024A2D
:103C0C0013607047640300206003002010B5EFF3CD
:103C1C00108472B641B1012903D1064A13680343DB
:103C2C00136084F3108810BD024A136823EA000362
:103C3C00F6E700BF600300200D4B0E4A0E4810B58E
:103C4C0000241C604FF0FF3313600C4A13600C4BC4
:103C5C001C600C4B1C600C4B802221461C6000F03D
:103C6C0049F90A4B1C605C609C60DC6010BD00BFB5
:103C7C0004040020340000207803002030000020D1
:103C8C0000040020FC030020F8030020680300203F
:103C9C0010B5EFF3108472B6064A13680343136031
:103CAC00054A52F83130034342F8313084F310881E
:103CBC0010BD00BF0404002068030020EFF3108146
:103CCC0072B6044A136823EA0000106081F310886E
:103CDC00704700BF34000020EFF3108172B6034A26
:103CEC0013681843106081F310887047340000206B
:103CFC00EFF3108172B6034A13681843106081F316
:103D0C00108870470004002070477047B0F5803F62
:103D1C003ABF000410230023B0F1807F3EBF08336C
:103D2C000002DBB2B0F1805F38BF00014FEA1070C7
:103D3C00054A38BF0433125C38BFDBB2C3F11F0332
:103D4C00981AC0B2704700BF1F4200082DE9F84F07
:103D5C003F4D404ED5F80080DFF808B1DFF808A1E0
:103D6C00DFF80891D6F800E03B4FDBF800303B4C15
:103D7C0008EA00002860DAF80000D9F800102A6878
:103D8C0002EA000C1EEA0C0F43D00B4041D1216813
:103D9C000A40024201D1A368012354F83320D90010
:103DAC0004EBC30302EA0C025868104208BF4FF040
:103DBC00FF30214408BF586048681040FFF7A6FF49
:103DCC004A683860012303FA00F022EA00024A60D4
:103DDC00EFF3108172B63A689340326822EA03021C
:103DEC003260A26822EA0302A260226822EA03037C
:103DFC00236081F310881A4A3B6852F823309847A5
:103E0C00D6F800E0DBF80030DAF80000D9F8001042
:103E1C00B5E74FF0FF333B60FFF776FFEFF310840D
:103E2C0072B63368DBF80020DAF800100B40296812
:103E3C000B4205D1D9F80030134201D1FCF790FAAE
:103E4C0084F31088FFF761FFC5F80080BDE8F88F98
:103E5C003000002004040020F80300206803002038
:103E6C00780300200004002034000020FC03002014
:103E7C002DE9F047DFF85890134ED9F80080134F16
:103E8C00D6F800A03060B8F1FF3F18BF01250446FA
:103E9C0014BF05FA08F500253B6823420ED0C9F87B
:103EAC000080EFF3108272B63B6823EA04033B6098
:103EBC0082F31088C6F800A0BDE8F087214628469A
:103ECC00FCF74FFAE8E700BFFC03002000040020D9
:103EDC00F803002010B51146EFF3108472B6FFF70B
:103EEC0015FF034B43F8201084F3108810BD00BF5E
:103EFC007803002002440346934200D1704703F834
:103F0C00011BF9E770B50D4D0D4C641BA410002678
:103F1C00A64209D10B4D0C4C00F026F8641BA410E2
:103F2C000026A64205D170BD55F8043B98470136D2
:103F3C00EEE755F8043B98470136F2E730420008AB
:103F4C003042000830420008344200080A449142D2
:103F5C0000F1FF3300D1704710B511F8014B03F895
:103F6C00014F9142F9D110BDF8B500BFF8BC08BCA7
:103F7C009E467047F8B500BFF8BC08BC9E4670471B
:103F8C00000000000000000000000000404000089D
:103F9C00F4010320E40103202604040012000000B5
:103FAC00240000003600000040000000000000006B
:103FBC000100000002000000030000001EFF4C0086
:103FCC0012190000000000000000000000000000BA
:103FDC00000000000000000000000002010619169D
:103FEC00AAFE4100000000000000000000000000DC
:103FFC0000000000000000000000000000000000B5
:10400C000000000000000000000000000000440060
:10401C0008004005020112299C00F4010004FFFF76
:10402C00FFFF480101000020D806000372060000C3
:10403C0000000D00000000480100000000000048D6
:10404C0001000000000000480100000000000048D2
:10405C0001000000000000480100000000000048C2
:10406C0001000000000000480100000000000048B2
:10407C0001000000000000480100000000000048A2
:10408C000100000000000048010000000000004892
:10409C000100000000000048010000000000004882
:1040AC000100000000000048010000000000004872
:1040BC000100000000000048010000000000004862
:1040CC000100000000000048010000000000004852
:1040DC000100000000000048010000000000004842
:1040EC000100000000000048010000000000004832
:1040FC000100000000000048010000000000004822
:10410C000100000000000048010000000000004811
:10411C000100000000000048010000000000004801
:10412C0001000000000000480100000000000048F1
:10413C0001000000000000480100000000000048E1
:10414C0001000000000000480100000000000048D1
:10415C0001000000000000480100000000000048C1
:10416C0001000000A0860100400D0300801A06002B
:10417C0000350C0040420F0080841E0000093D00F9
:10418C0000127A000024F40000366E010048E801A9
:10419C00006CDC02000000000000000000000000C9
:1041AC0000000000010000000300000005000000FA
:1041BC000100000001000000060000000A000000E1
:1041CC0020000000020000000400000008000000B5
:1041DC001000000040000000800000000001000002
:1041EC000002000054454D504C41544500FEDCBAD1
:1041FC000987654321FEDCBA0987654321123456D1
:10420C00789ABCDEF0123456789ABCDEF0EEDDCC37
:10421C00BBAA11040302020101010100000000000D
:04422C00000000008E
:044230006101000820
:044234003D01000840
:104238000100000000093D0001000000100000001E
:10424800FFFFCCCCCCCCFF00FFFFFFFFFFFFFFFF41
:104258000000000101010100FFFFFFFFFFFFFFFF5A
:104268000000000000000000000000000000000046
:104278000000000000000000000000000000000036
:104288000000000000000000000000000000000026
:05429800000000000021
:10429D000000000000000000000000000000000011
:0142AD000010
:1042AE000000000000000000000000000000000000
:1042BE0000000000000000000000000000000000F0
:1042CE0000000000000000000000000000000000E0
:1042DE0000000000000000000000000000000000D0
:034B2E0000000084
:0400000508000D4999
:00000001FF
